:100000000C9434000C943E000C943E000C943E0082
:100010000C943E000C943E000C943E000C943E0068
:100020000C943E000C943E000C943E000C943E0058
:100030000C943E000C943E000C943E000C943E0048
:100040000C943E000C943E000C943E000C943E0038
:100050000C943E000C943E000C943E000C943E0028
:100060000C943E000C943E0011241FBECFEFD8E04C
:10007000DEBFCDBF0E9440000C944C010C940000E8
:1000800088D081E493D084E591D099D083E090E04A
:100090009F938F9384E090E09F938F936F917F91D4
:1000A0008F919F91860F971F9F938F939F918F9111
:1000B0008DD085D088E090E09F938F9382E090E090
:1000C0009F938F936F917F918F919F91B8D09F93C2
:1000D0008F939F918F917AD072D081E090E09F931F
:1000E0008F939F918F9172D06AD08FE090E09F9311
:1000F0008F938F919F91E0E0F2E0819390839F91A5
:100100008F9164D05CD0E0E0F2E0819190819F9388
:100110008F939F918F915AD052D083E090E09F931C
:100120008F9384E090E09F938F936F917F918F9155
:100130009F91860F971F9F938F939F918F9146D08A
:100140003ED085E090E09F938F9386E090E09F9370
:100150008F936F917F918F919F91861B970B9F93A8
:100160008F939F918F9132D02AD082E090E09F931D
:100170008F9382E090E09F938F936F917F918F9107
:100180009F9178D09F938F939F918F911FD017D07D
:10019000FFCF80E097E68093C5009093C40088E08D
:1001A0008093C10086E08093C20008959F93909150
:1001B000C00095FFFCCF8093C6009F9108958F9358
:1001C0008DE0F4DF8AE0F2DF8F9108950F931F93A3
:1001D0002F933F933327882329F4992319F480E33D
:1001E000E5DF0FC020E137E211D028EE33E00ED07A
:1001F00024E630E00BD02AE030E008D0862F805D86
:10020000D5DF3F912F911F910F910895DC01B90126
:10021000CD0115D0882311F0805DC8DFCD01089590
:10022000BB27AA2720E160FDA80F60FDB91F7695C6
:100230006795880F991F2A95B1F7CD0108950F93FF
:100240001F938C01CB01B8010027112721E1661F04
:10025000771F001F111F081B190B20F4080F191F0F
:10026000889401C008942A9591F7CB01B8011F9199
:100270000F9108950F931F938C0181E099276623B6
:1002800011F4772331F09C01A801CADF615070405E
:0C029000F6CF1F910F910895F894FFCF56
:00000001FF
